:020000040800F2
:10000000000C002065150008CD0F0008D10F000876
:1000100000000000000000000000000000000000E0
:10002000000000000000000000000000D50F0008E4
:100030000000000000000000D90F0008DD0F0008DC
:10004000000000000000000000000000B5150008DE
:10005000B5150008B5150008B5150008B515000858
:100060000000000000000000000000000000000090
:10007000B5150008B5150008B5150008000000000A
:1000800000000000B515000800000000000000009E
:1000900000000000B515000800000000B5150008BC
:1000A00000000000B515000800000000B5150008AC
:1000B0000000000000000000000000000000000040
:1000C000002243088B4274D303098B425FD3030A97
:1000D0008B4244D3030B8B4228D3030C8B420DD3AA
:1000E000FF22090212BA030C8B4202D31212090238
:1000F00065D0030B8B4219D300E0090AC30B8B4276
:1001000001D3CB03C01A5241830B8B4201D38B0323
:10011000C01A5241430B8B4201D34B03C01A5241C8
:10012000030B8B4201D30B03C01A5241C30A8B420B
:1001300001D3CB02C01A5241830A8B4201D38B02F6
:10014000C01A5241430A8B4201D34B02C01A52419A
:10015000030A8B4201D30B02C01A5241CDD2C3090C
:100160008B4201D3CB01C01A524183098B4201D388
:100170008B01C01A524143098B4201D34B01C01A73
:10018000524103098B4201D30B01C01A5241C308EB
:100190008B4201D3CB00C01A524183088B4201D35A
:1001A0008B00C01A524143088B4201D34B00C01A46
:1001B0005241411A00D20146524110467047FFE7B2
:1001C00001B5002000F006F802BDC0460029F7D0B6
:1001D00076E770477047C0460448054B10B5834228
:1001E00003D0044B002B00D0984710BD1400002012
:1001F000140000200000000006480749091A8B106F
:10020000C90FC91810B5491003D0044B002B00D0FA
:10021000984710BD140000201400002000000000CA
:1002200010B5074C2378002B09D1FFF7D5FF054BFC
:10023000002B02D0044800E000BF0123237010BD52
:100240001400002000000000B8150008054B10B590
:10025000002B03D00449054800E000BFFFF7CCFFA6
:1002600010BDC0460000000018000020B8150008AE
:1002700070B500260C4C0D4D641BA410A64209D18C
:10028000002601F099F90A4C0A4D641BA410A642FD
:1002900005D170BDB300EB5898470136EEE7B300C7
:1002A000EB5898470136F2E7F0150008F015000802
:1002B000F4150008F01500080749084A4B68126851
:1002C0001B0C1B04134380229201134380224B60BA
:1002D000034B12059A60704700100240040FFF1F85
:1002E00000ED00E070B5A024E4050221200001F03B
:1002F0001FF84021200001F01BF88021200001F0B0
:1003000017F8464D288800F005FF0221200001F073
:1003100011F84021200001F00DF88021200001F0AB
:1003200009F8288800F0F6FE0221200001F000F80C
:100330004021200000F0FCFF8021200000F0F8FFA9
:10034000374D287800F0E6FE0221200000F0F2FF91
:100350004021200000F0EEFF8021200000F0EAFFA5
:10036000287800F0D7FE0221200000F0E1FF4021B4
:10037000200000F0DDFF8021200000F0D9FF287868
:1003800000F0C8FE0221200000F0D4FF4021200030
:1003900000F0D0FF8021200000F0CCFF287800F092
:1003A000B9FE0221200000F0C3FF4021200000F030
:1003B000BFFF8021200000F0BBFF287800F0AAFEDC
:1003C0000221200000F0B6FF4021200000F0B2FF23
:1003D0008021200000F0AEFF287800F09BFE022173
:1003E000200000F0A5FF4021200000F0A1FF8021A7
:1003F000200000F09DFF287800F08CFE02212000F4
:1004000000F098FF4021200000F094FF80212000A0
:1004100000F090FF287800F07DFE70BD08000020FD
:100420000500002070B5A025394CED050121200004
:1004300000F07EFF2021280000F07AFF354E308842
:1004400000F068FE2800202100F074FF0121200048
:1004500000F070FF308800F05DFE0121200000F008
:1004600067FF2021280000F063FF2B4E307800F05A
:1004700051FE2800202100F05DFF0121200000F046
:1004800059FF307800F046FE0121200000F050FFB7
:100490002021280000F04CFF307800F03BFE2800BF
:1004A000202100F047FF0121200000F043FF3078B9
:1004B00000F030FE0121200000F03AFF202128004A
:1004C00000F036FF307800F025FE2800202100F0F3
:1004D00031FF0121200000F02DFF307800F01AFEDE
:1004E0000121200000F024FF2021280000F020FF3F
:1004F000307800F00FFE2800202100F01BFF0121C2
:10050000200000F017FF307800F004FE70BDC046F8
:1005100000140050080000200500002070B5A02441
:10052000E4050221200000F003FF624D287800F06E
:10053000F1FD0221200000F0FDFE4021200000F02E
:10054000F7FE287800F0E6FD4021200000F0F2FEE2
:100550008021200000F0ECFE287800F0DBFD8021F7
:10056000200000F0E7FE0221200000F0E1FE2878E4
:1005700000F0D0FD0221200000F0DCFE4021200030
:1005800000F0D6FE287800F0C5FD4021200000F0E4
:10059000D1FE8021200000F0CBFE287800F0BAFDCB
:1005A0008021200000F0C6FE0221200000F0C0FEE5
:1005B000287800F0AFFD0221200000F0BBFE4021B2
:1005C000200000F0B5FE287800F0A4FD40212000B6
:1005D00000F0B0FE8021200000F0AAFE287800F094
:1005E00099FD8021200000F0A5FE0221200000F0EE
:1005F0009FFE287800F08EFD0221200000F09AFE78
:100600004021200000F094FE287800F083FD402176
:10061000200000F08FFE8021200000F089FE287865
:1006200000F078FD8021200000F084FE02212000EF
:1006300000F07EFE287800F06DFD0221200000F021
:1006400079FE4021200000F073FE287800F062FD62
:100650004021200000F06EFE8021200000F068FEA6
:10066000287800F057FD8021200000F063FE022171
:10067000200000F05DFE287800F04CFD02212000F3
:1006800000F058FE4021200000F052FE287800F0D3
:1006900041FD4021200000F04DFE8021200000F0AF
:1006A00047FE287800F036FD8021200000F042FE51
:1006B00070BDC0460600002070B5A024E405184EA9
:1006C0000221200000F034FE2021200000F030FE46
:1006D0003000012100F02CFE8021200000F028FED7
:1006E0004021200000F024FE0E4D288800F012FD6D
:1006F0000221200000F01EFE2021200000F01AFE42
:100700003000012100F016FE8021200000F012FED2
:100710004021200000F00EFE288800F0FBFC70BD98
:10072000001400500800002070B5A025ED058021C0
:10073000280000F0FDFD684C684E207800F0EAFCCF
:100740004021280000F0F4FD207800F0E3FC0221B5
:10075000280000F0EDFD207800F0DCFC20212800CE
:1007600000F0E6FD207800F0D5FC0121300000F01B
:10077000DFFD207800F0CEFC8021280000F0DAFDBB
:10078000207800F0C7FC4021280000F0D3FD20783D
:1007900000F0C0FC0221280000F0CCFD207800F021
:1007A000B9FC2021280000F0C5FD207800F0B2FC43
:1007B0000121300000F0BEFD207800F0ABFC80216C
:1007C000280000F0B5FD207800F0A4FC40212800AE
:1007D00000F0AEFD207800F09DFC0221280000F022
:1007E000A7FD207800F096FC2021280000F0A0FD55
:1007F000207800F08FFC0121300000F099FD207876
:1008000000F088FC8021280000F094FD207800F0A2
:1008100081FC4021280000F08DFD207800F07AFC5A
:100820000221280000F086FD207800F073FC2021D2
:10083000280000F07FFD207800F06CFC01213000E2
:1008400000F078FD207800F065FC8021280000F0A1
:100850006FFD207800F05EFC4021280000F068FD6C
:10086000207800F057FC0221280000F061FD20787C
:1008700000F050FC2021280000F05AFD207800F004
:1008800049FC0121300000F053FD207800F042FCCB
:100890008021280000F04EFD207800F03BFC402134
:1008A000280000F047FD207800F034FC02212800E9
:1008B00000F040FD207800F02DFC2021280000F001
:1008C00039FD207800F026FC0121300000F032FDD7
:1008D000207800F01FFC70BD0500002000140050BF
:1008E00070B5A024E4055D4E0221200000F020FD3B
:1008F0002021200000F01CFD3000012100F018FD37
:100900008021200000F014FD4021200000F010FDA7
:10091000534D288800F0FEFB0221200000F00AFD64
:100920002021200000F006FD4021200000F002FD03
:100930008021200000F0FEFC0121300000F0FAFCD4
:10094000288800F0E7FB0221200000F0F1FC2021C4
:10095000200000F0EDFC3000012100F0E9FC8021D6
:10096000200000F0E5FC4021200000F0E1FC288898
:1009700000F0D0FB0221200000F0DCFC2021200050
:1009800000F0D8FC4021200000F0D4FC80212000A1
:1009900000F0D0FC0121300000F0CCFC288800F0F1
:1009A000B9FB0221200000F0C3FC2021200000F050
:1009B000BFFC3000012100F0BBFC8021200000F0D2
:1009C000B7FC4021200000F0B3FC288800F0A2FB17
:1009D0000221200000F0AEFC2021200000F0AAFC43
:1009E0004021200000F0A6FC8021200000F0A2FCA5
:1009F0000121300000F09EFC288800F08BFB0221D2
:100A0000200000F095FC2021200000F091FC300037
:100A1000012100F08DFC8021200000F089FC4021A4
:100A2000200000F085FC288800F074FB02212000E3
:100A300000F080FC2021200000F07CFC4021200000
:100A400000F078FC8021200000F074FC01213000CF
:100A500000F070FC288800F05DFB70BD00140050B1
:100A60000800002070B5A025ED058021280000F0C9
:100A70005FFCFE4CFE4E207800F04CFB80212800ED
:100A800000F058FC207800F045FB4021280000F0E1
:100A90004FFC207800F03EFB4021280000F04AFC8B
:100AA000207800F037FB0221280000F041FC20787C
:100AB00000F030FB0221280000F03CFC207800F020
:100AC00029FB2021280000F033FC207800F022FBD5
:100AD0002021280000F02EFC207800F01BFB0121D3
:100AE000300000F025FC207800F014FB01213000DC
:100AF00000F020FC207800F00DFB8021280000F0A1
:100B000017FC207800F006FB8021280000F012FC82
:100B1000207800F0FFFA4021280000F009FC20783E
:100B200000F0F8FA4021280000F004FC207800F0E2
:100B3000F1FA0221280000F0FBFB207800F0EAFA2D
:100B40000221280000F0F6FB207800F0E3FA2021D3
:100B5000280000F0EDFB207800F0DCFA20212800CE
:100B600000F0E8FB207800F0D5FA0121300000F019
:100B7000DFFB207800F0CEFA0121300000F0DAFB34
:100B8000207800F0C7FA8021280000F0D1FB2078FF
:100B900000F0C0FA8021280000F0CCFB207800F0A3
:100BA000B9FA4021280000F0C3FB207800F0B2FA27
:100BB0004021280000F0BEFB207800F0ABFA0221B3
:100BC000280000F0B5FB207800F0A4FA02212800EC
:100BD00000F0B0FB207800F09DFA2021280000F002
:100BE000A7FB207800F096FA2021280000F0A2FB55
:100BF000207800F08FFA0121300000F099FB207876
:100C000000F088FA0121300000F094FB207800F019
:100C100081FA8021280000F08BFB207800F07AFA1E
:100C20008021280000F086FB207800F073FA402134
:100C3000280000F07DFB207800F06CFA40212800AD
:100C400000F078FB207800F065FA0221280000F01F
:100C50006FFB207800F05EFA0221280000F06AFBAA
:100C6000207800F057FA2021280000F061FB20785E
:100C700000F050FA2021280000F05CFB207800F002
:100C800049FA0121300000F053FB207800F042FACD
:100C90000121300000F04EFB207800F03BFA80216B
:100CA000280000F045FB207800F034FA802128006D
:100CB00000F040FB207800F02DFA4021280000F0E1
:100CC00037FB207800F026FA4021280000F032FBA4
:100CD000207800F01FFA0221280000F029FB20787C
:100CE00000F018FA0221280000F024FB207800F020
:100CF00011FA2021280000F01BFB207800F00AFAEE
:100D00002021280000F016FB207800F003FA0121D2
:100D1000300000F00DFB207800F0FCF901213000DC
:100D200000F008FB207800F0F5F98021280000F0A1
:100D3000FFFA207800F0EEF98021280000F0FAFA9E
:100D4000207800F0E7F94021280000F0F1FA20783F
:100D500000F0E0F94021280000F0ECFA207800F0E3
:100D6000D9F90221280000F0E3FA207800F0D2F946
:100D70000221280000F0DEFA207800F0CBF92021D3
:100D8000280000F0D5FA207800F0C4F920212800CE
:100D900000F0D0FA207800F0BDF90121300000F019
:100DA000C7FA207800F0B6F90121300000F0C2FA4D
:100DB000207800F0AFF98021280000F0B9FA2078FF
:100DC00000F0A8F98021280000F0B4FA207800F0A3
:100DD000A1F94021280000F0ABFA207800F09AF940
:100DE0004021280000F0A6FA207800F093F90221B3
:100DF000280000F09DFA207800F08CF902212800EC
:100E000000F098FA207800F085F92021280000F001
:100E10008FFA207800F07EF92021280000F08AFA6D
:100E2000207800F077F90121300000F081FA207875
:100E300000F070F90121300000F07CFA207800F019
:100E400069F98021280000F073FA207800F062F937
:100E50008021280000F06EFA207800F05BF9402134
:100E6000280000F065FA207804E0C0460400002065
:100E70000014005000F04EF94021280000F05AFA0A
:100E8000207800F047F90221280000F051FA20787C
:100E900000F040F90221280000F04CFA207800F020
:100EA00039F92021280000F043FA207800F032F9C7
:100EB0002021280000F03EFA207800F02BF90121D3
:100EC000300000F035FA207800F024F901213000DC
:100ED00000F030FA207800F01DF970BDF0B5012562
:100EE000384C8DB000F0F8F8636BA0202B4363639F
:100EF000636B01262B40019302270222019B0123F1
:100F000006A9C005069207930896099700F014F900
:100F1000636BA0202B436363636B40222B400293DF
:100F2000029B012306A9C00506920793089609971C
:100F300000F002F9636BA0202B436363636B802294
:100F40002B400393039B012306A9C0050692079338
:100F50000896099700F0F0F8636BA0202B436363B9
:100F6000636B20221D400495049B012306A9C00544
:100F7000069207930896099700F0DEF82023626B2B
:100F800011481A436263626B06A91340059301225C
:100F9000059B0123089609970692079300F0CCF869
:100FA00000F022F8FFF79EF9FFF73CFAFFF7B6FAD8
:100FB000FFF782FBFFF7B8FBFFF792FCFFF752FD4C
:100FC000F0E7C04600100240001400507047C046D1
:100FD000FEE7C0467047C0467047C04610B500F0F7
:100FE00087F810BD7047C0460023802130B5244CDF
:100FF0008BB00193226CC9010A432264226C214800
:101000000A400192019A204A01250260E122836090
:101010005202C360036183610C334260436100F09C
:10102000F1F9636B04222B436363636B04A92B40C8
:101030000293029B636B2B436363636BA0242B407F
:101040000393039B02230492059301220323E405E7
:10105000200006920793089500F06EF80823200000
:1010600004A90493089500F067F8012200211B20D1
:1010700000F062F91B2000F089F90BB030BDC046CA
:101080000010024030000020003801400F4B70B5C6
:1010900019680400002901D1012070BDFA208000E8
:1010A000FFF70EF80A4D01002868FFF709F800F075
:1010B00079F90028F0D1032CEED801380022210064
:1010C00000F03AF9034B00201C60E6E70C0000201A
:1010D000000000201000002010B50320FFF7D6FF0D
:1010E000041E02D00124200010BDFFF77BFFFAE7A9
:1010F000034A0449136809685B1813607047C046C7
:10110000740000200C000020014B18687047C04696
:101110007400002070B50400FFF7F6FF0500631CA3
:1011200002D0044B1B68E418FFF7EEFF401BA042FF
:10113000FAD370BD0C000020F0B54546DE46574698
:101140004E46E0B50D68002383B0002D00D189E044
:10115000754F009101242E009C40264001962542A7
:101160007BD0009A1021526816008E43B146022EA1
:1011700000D17EE001688B4659008C46032166460B
:10118000B1408A46C943564688465946B1438B46C4
:10119000032166461140B1408A46594656463143BE
:1011A0000160012149428A46D1444946012900D8BB
:1011B00095E04646C468009926408C6861468C409C
:1011C000802134434905C4600A4246D056499C08F0
:1011D0008C46A4006444216E8C4603211940C9004A
:1011E00088460F214646B140894661464E46B14386
:1011F0008C46A021C90588420CD04C498946012162
:10120000484500D002214646B140894661464E46D7
:1012100031438C466146216680217C580199C9433F
:101220008C46D10300D57CE061460C4080217C5087
:1012300084243C59910300D570E061460C40842120
:101240007C503C68D10266D461460C403C607C68AE
:1012500092025DD4624614407C602A000133DA4079
:1012600000D077E703B0F0BCBB46B246A946A04623
:10127000F0BDD90889008C4684446146096A8A46D3
:1012800007211940890088460F214646B14089460A
:1012900051464E46B14346468A4600990969B140D7
:1012A00088465146464631438846614646460E6268
:1012B00001688A4659008C4603216646B14089463A
:1012C000C9434E4688465146B1438A460321664685
:1012D0001140B140894651464E4631430160816814
:1012E0000E0041460E400099B246C9680E006146A4
:1012F0008E40B146564649460E43866041680E0010
:101300000121A64314090C409C403443446050E73B
:10131000019A1443A0E701990C4397E701990C4304
:101320008DE701990C4381E700180240000400504A
:101330008161704781627047FF22032310B514005A
:101340000340DB009C4089010A40E4439A400028A6
:101350000BDB0C4BC0219C46800880006044890058
:10136000435823401343435010BD0F230649034005
:101370008C46083B9B089B006344D9690C4014438E
:10138000DC61F1E700E100E000ED00E0002805DBB2
:101390001F22012302409340014A13607047C04658
:1013A00000E100E08022431E5204012093420ED24D
:1013B000C021074A07485360036A09061B021B0A3B
:1013C0000B430362002300209360073313607047D0
:1013D00010E000E000ED00E0064B07499B68074A7B
:1013E0005B045B0F9B005B581F2110680B40D840CB
:1013F0007047C04600100240D015000800000020D1
:101400007047C046F8B5041E00D19DE03D23C35C83
:10141000DAB2002B00D18BE03D232422E254236872
:101420004A49DA6820690A40DA601A690A40E168C4
:101430000A431A61A268D9680243606902434448BA
:1014400001400A43DA605A694248E16902400A43AE
:101450005A615A6940480240A06902435A61802398
:101460001B01994240D0FFF7B7FF8300616818184D
:101470008300C0188900FEF723FE64210700FEF7F1
:10148000A5FE080132306421FEF71AFE6421060031
:101490003800FEF715FE256800013618AE60236A95
:1014A000002B0BD05B0609D56B692C49626A0B4097
:1014B00013436B6180235B019A423ED02B69254A1E
:1014C0000020134008222B616B6993436B618023DA
:1014D000EA689B011343EB6000233D222364203321
:1014E000A3540132A354F8BDFFF776FF830061686F
:1014F00018188300C0184900FEF7E2FD64210700B8
:10150000FEF764FEC80032306421FEF7D9FD642185
:1015100006003800FEF7D4FD072300013340C01851
:10152000F82376005B0025681E408619AE60B6E79A
:101530003C33C254FFF764FF6EE76B69084A1340FF
:10154000A26A13436B61B9E70120CCE7FFDFFFFF1D
:10155000F3E9FFFFFFF7FFFFFFFCFFFFFFEFFFFFD8
:10156000FF9FFFFF0D4885460D480E490E4A002398
:1015700002E0D458C4500433C4188C42F9D30B4A47
:101580000B4C002301E013600432A242FBD3FEF7B0
:1015900093FEFEF76DFEFFF7A1FCFEE7000C0020B6
:1015A0000000002014000020F8150008140000209E
:1015B00078000020FEE70000F8B5C046F8BC08BC83
:1015C0009E467047F8B5C046F8BC08BC9E467047BA
:1015D000000000000000000000000000000000000B
:1015E00001000000020000000300000004000000F1
:0415F0004D020008A0
:0415F40021020008C8
:1015F80000127A0032FAC800D0070000010000008B
:0416080004000000DA
:040000050800156575
:00000001FF
